:1000000012C02CC02BC02AC029C028C027C026C0BF
:1000100025C024C023C05AC282C220C01FC01EC037
:100020001DC01CC01BC011241FBECFE5D4E0DEBF25
:10003000CDBF10E0A0E6B0E0E4E4F7E002C0059038
:100040000D92A637B107D9F710E0A6E7B0E001C0DE
:100050001D92A13DB107E1F73BD172C3D1CF80E43E
:1000600087B987E886B9089597B18770987F892BFB
:1000700087B9369A3699FECF24B135B1C9010895B2
:100080008091C600853019F481E08093C60080918C
:10009000C6008F5F8093C600813011F48AE003C0F0
:1000A000823019F486E085BB0AC0833011F485E004
:1000B000FACF843021F489E085BB1092C6008FEF1F
:1000C0009FEAA1E081509040A040E1F700C000000D
:1000D00015BA8FEF9FEBA6E081509040A040E1F76A
:1000E00000C0000008958091C600882319F485E0BF
:1000F0008093C6008091C60081508093C6008130F5
:1001000031F48AE085BB85E08093C6000CC0823064
:1001100011F486E007C0833011F485E003C0843019
:1001200011F489E085BB8FEF9FEAA1E081509040F8
:10013000A040E1F700C0000015BA8FEF9FEBA6E0EA
:1001400081509040A040E1F700C0000008959298CF
:100150000895929A08952091C60080E090E2E82FD9
:10016000F0E0E254FF4F90838F5F2817C0F70895A7
:100170001092C6000AC0B7DF8FEF9FEDA0E181505B
:100180009040A040E1F700C0000085E06DDF909353
:10019000BC008093BB008091BB009091BC00803379
:1001A000910548F7089585E05FDF9093BC00809348
:1001B000BB00CFDF8091C7009091C8006DEC70E06C
:1001C0004AE050E086D280E690E00ED28DEC90E0DE
:1001D0000BD287E690E008D28091C7009091C800CA
:1001E0002091BB003091BC00821B930B9093CB00FD
:1001F0008093CA006DEC70E04AE050E06AD289E674
:1002000090E0F2D18DEC90E0EFD187E690E0ECD178
:100210008091CA009091CB001816190604F12AC0EB
:100220001816190614F42CDF01C05DDF8FEF9FED67
:10023000A0E181509040A040E1F700C0000085E0BF
:1002400013DF9093BC008093BB002091C7003091D6
:10025000C800281B390B3093CB002093CA00809133
:10026000CA009091CB009C01225F3F4F2D31310598
:10027000B8F608958091BB009091BC0014C097FF20
:1002800002C0FEDE01C02FDF8FEF9FEDA0E18150A5
:100290009040A040E1F700C0000085E0E5DE9093CB
:1002A000BC008093BB002091C7003091C800821B26
:1002B000930B9093CB008093CA008091CA009091D9
:1002C000CB009C01225F3F4F2D313105C0F60895D0
:1002D0000F931F9384B38F6084BB8A9A87E490E066
:1002E00043D17894BCDE1092C60033DF85E0BCDEDB
:1002F0009093BC008093BB006DEC70E04AE050E04E
:10030000E8D18FE690E070D18DEC90E06DD181E77F
:1003100090E06AD11CDF1092C90002E011E0CDC06C
:1003200037D19093C4008093C3008432910511F5B6
:1003300085E09ADE9093BC008093BB006DEC70E08A
:100340004AE050E0C6D105DF8FEF9BE60197F1F759
:1003500000C000008FE690E047D18DEC90E044D1E2
:1003600084E790E041D1AFEFBBE61197F1F700C011
:100370000000EDDE8091C3009091C40083329105AE
:1003800021F08091CC00823039F5E3DE8FEF9BE6DF
:100390000197F1F700C000008EEB90E07DD19093C3
:1003A000C8008093C7008EEB90E01ED187E690E0F6
:1003B0001BD1AFEFBBE61197F1F700C00000C7DE1D
:1003C0001092CC00C8DE8091C7009091C800EBDE8F
:1003D0001092C5001092CC008091CC00813081F445
:1003E0008091C500E82FF0E0E254FF4F9091C300E8
:1003F00090838F5F8093C500843011F40093CC000C
:100400008091C3009091C4008A32910529F4109321
:10041000CC001092C50010C08C36910569F410D143
:1004200062DE8FEF9FEDA0E181509040A040E1F7A8
:1004300000C000001093C9008091C3009091C400D7
:100440008237910569F4FCD01BDE8FEF9FEDA0E1B0
:1004500081509040A040E1F700C000001093C90017
:100460008091C900813049F59091BD00992329F50B
:100470000093C9008093BD0085E0F6DD9093BC0039
:100480008093BB006DEC70E04AE050E022D161DE69
:10049000AFEFBBE61197F1F700C000008FE690E0E8
:1004A000A3D08DEC90E0A0D084E790E09DD08FEFBA
:1004B0009BE60197F1F700C00000B6D018161906A8
:1004C0000CF42ECF1092BD0042DEF7CF1F920F9298
:1004D0000FB60F9211242F938F939F93EF93FF9357
:1004E0008BB19CB1E0917700EF5FEF7120917600C6
:1004F000E21741F08871E0937700F0E0E656FF4F95
:10050000908301C082E08093BA00FF91EF919F91A8
:100510008F912F910F900FBE0F901F9018951F92E3
:100520000F920FB60F9211248F939F93EF93FF9327
:100530009091780080917900981761F0E0917900AE
:10054000EF5FEF71E0937900F0E0E658FF4F8081B4
:100550008CB901C05598FF91EF919F918F910F90A9
:100560000FBE0F901F90189510927800109279008E
:10057000109277001092760097FF03C022E02BB90B
:100580009F7790BD89B988E98AB986E880BD0895CA
:100590009091770080917600981789F0E09176002D
:1005A000EF5FEF71E0937600F0E0E656FF4F808159
:1005B0009091BA00392F20E0280F311D02C020E0B1
:1005C00031E0C9010895909178009F5F9F7120915B
:1005D00079009217E1F3E92FF0E0E658FF4F8083AE
:1005E00090937800559A0895EF92FF92CF93DF93FE
:1005F000E82EE7017E01F92EE70101C0E4DF8991D1
:100600008823E1F7DF91CF91FF90EF900895CF938A
:10061000DF93EC0101C0D7DFFE012196849188238E
:10062000D1F7DF91CF9108958091770020917600E6
:1006300090E04F96821B91096FE170E006D008951B
:100640008091760080937700089597FB092E072606
:100650000AD077FD04D00CD006D000201AF4709593
:1006600061957F4F0895F6F7909581959F4F089576
:10067000AA1BBB1B51E107C0AA1FBB1FA617B707C8
:1006800010F0A61BB70B881F991F5A95A9F78095E4
:100690009095BC01CD010895FC0188279927E89425
:1006A00021912032E9F3293010F02E30C8F32B329B
:1006B00039F02D3231F4689403C02AD0820F911D95
:1006C000219120532A30C8F31EF4909581959F4FB5
:1006D0000895FB019F01E8944230BCF04532ACF430
:1006E0004A3029F497FB1EF4909581959F4F642F13
:1006F0007727BEDF805D8A330CF0895D8193CB0163
:100700000097A9F716F45DE251931082C90108C061
:100710007AE0979F902D879F802D910D1124089549
:10072000DC01FC01672F71917723E1F7329704C058
:100730007C916D9370836291AE17BF07C8F30895E3
:04074000F894FFCF5B
:10074400737564757420000A006469666620002A63
:0607540000230A0023004F
:04000005008000CCAB
:00000001FF
